{
  "_format": "hh-sol-artifact-1",
  "contractName": "MEVProtection",
  "sourceName": "contracts/MEVProtection.sol",
  "abi": [
    {
      "inputs": [
        {
          "internalType": "address payable",
          "name": "_to",
          "type": "address"
        },
        {
          "internalType": "uint256",
          "name": "_amount",
          "type": "uint256"
        },
        {
          "internalType": "bytes32",
          "name": "_nonce",
          "type": "bytes32"
        }
      ],
      "name": "executeTransaction",
      "outputs": [],
      "stateMutability": "nonpayable",
      "type": "function"
    }
  ],
  "bytecode": "0x608060405234801561001057600080fd5b50610488806100206000396000f3fe608060405234801561001057600080fd5b506004361061002b5760003560e01c80632bedae8d14610030575b600080fd5b61004a6004803603810190610045919061020d565b61004c565b005b8060008082815260200190815260200160002060009054906101000a900460ff16156100ad576040517f08c379a00000000000000000000000000000000000000000000000000000000081526004016100a49061036b565b60405180910390fd5b600160008083815260200190815260200160002060006101000a81548160ff0219169083151502179055506000831161011b576040517f08c379a00000000000000000000000000000000000000000000000000000000081526004016101129061034b565b60405180910390fd5b60008473ffffffffffffffffffffffffffffffffffffffff168460405161014190610336565b60006040518083038185875af1925050503d806000811461017e576040519150601f19603f3d011682016040523d82523d6000602084013e610183565b606091505b50509050806101c7576040517f08c379a00000000000000000000000000000000000000000000000000000000081526004016101be9061038b565b60405180910390fd5b5050505050565b6000813590506101dd8161040d565b92915050565b6000813590506101f281610424565b92915050565b6000813590506102078161043b565b92915050565b60008060006060848603121561022257600080fd5b6000610230868287016101ce565b9350506020610241868287016101f8565b9250506040610252868287016101e3565b9150509250925092565b60006102696020836103b6565b91507f416d6f756e74206d7573742062652067726561746572207468616e207a65726f6000830152602082019050919050565b60006102a96016836103b6565b91507f5265706c61792061747461636b206465746563746564000000000000000000006000830152602082019050919050565b60006102e96012836103b6565b91507f5472616e73616374696f6e206661696c656400000000000000000000000000006000830152602082019050919050565b60006103296000836103ab565b9150600082019050919050565b60006103418261031c565b9150819050919050565b600060208201905081810360008301526103648161025c565b9050919050565b600060208201905081810360008301526103848161029c565b9050919050565b600060208201905081810360008301526103a4816102dc565b9050919050565b600081905092915050565b600082825260208201905092915050565b60006103d2826103e3565b9050919050565b6000819050919050565b600073ffffffffffffffffffffffffffffffffffffffff82169050919050565b6000819050919050565b610416816103c7565b811461042157600080fd5b50565b61042d816103d9565b811461043857600080fd5b50565b61044481610403565b811461044f57600080fd5b5056fea264697066735822122061d25f2bf0c723ae5e539bf331a8626a8d32e2e1906300a4c91530cf00d5779664736f6c63430008000033",
  "linkReferences": {},
  "deployedLinkReferences": {}
}