{
  "_format": "hh-sol-artifact-1",
  "contractName": "MockDexAggregator",
  "sourceName": "contracts/MockDexAggregator.sol",
  "abi": [
    {
      "inputs": [
        {
          "internalType": "address",
          "name": "_token",
          "type": "address"
        },
        {
          "internalType": "uint256",
          "name": "_amount",
          "type": "uint256"
        }
      ],
      "name": "aggregateLiquidity",
      "outputs": [],
      "stateMutability": "nonpayable",
      "type": "function"
    },
    {
      "inputs": [
        {
          "internalType": "address",
          "name": "_token",
          "type": "address"
        }
      ],
      "name": "getLiquidity",
      "outputs": [
        {
          "internalType": "uint256",
          "name": "",
          "type": "uint256"
        }
      ],
      "stateMutability": "view",
      "type": "function"
    },
    {
      "inputs": [
        {
          "internalType": "address",
          "name": "",
          "type": "address"
        }
      ],
      "name": "liquidity",
      "outputs": [
        {
          "internalType": "uint256",
          "name": "",
          "type": "uint256"
        }
      ],
      "stateMutability": "view",
      "type": "function"
    }
  ],
  "bytecode": "0x608060405234801561001057600080fd5b50610359806100206000396000f3fe608060405234801561001057600080fd5b50600436106100415760003560e01c8063a747b93b14610046578063b8c876b114610076578063c36a0b6e146100a6575b600080fd5b610060600480360381019061005b91906101a5565b6100c2565b60405161006d9190610219565b60405180910390f35b610090600480360381019061008b91906101a5565b61010a565b60405161009d9190610219565b60405180910390f35b6100c060048036038101906100bb91906101ce565b610122565b005b60008060008373ffffffffffffffffffffffffffffffffffffffff1673ffffffffffffffffffffffffffffffffffffffff168152602001908152602001600020549050919050565b60006020528060005260406000206000915090505481565b806000808473ffffffffffffffffffffffffffffffffffffffff1673ffffffffffffffffffffffffffffffffffffffff16815260200190815260200160002060008282546101709190610234565b925050819055505050565b60008135905061018a816102f5565b92915050565b60008135905061019f8161030c565b92915050565b6000602082840312156101b757600080fd5b60006101c58482850161017b565b91505092915050565b600080604083850312156101e157600080fd5b60006101ef8582860161017b565b925050602061020085828601610190565b9150509250929050565b610213816102bc565b82525050565b600060208201905061022e600083018461020a565b92915050565b600061023f826102bc565b915061024a836102bc565b9250827fffffffffffffffffffffffffffffffffffffffffffffffffffffffffffffffff0382111561027f5761027e6102c6565b5b828201905092915050565b60006102958261029c565b9050919050565b600073ffffffffffffffffffffffffffffffffffffffff82169050919050565b6000819050919050565b7f4e487b7100000000000000000000000000000000000000000000000000000000600052601160045260246000fd5b6102fe8161028a565b811461030957600080fd5b50565b610315816102bc565b811461032057600080fd5b5056fea2646970667358221220dd2e9dfd5fa49eed9ccdaf6c9a25c7d133b9654c4726f41d205d44337f4f9a8664736f6c63430008000033",
  "linkReferences": {},
  "deployedLinkReferences": {}
}