{
  "_format": "hh-sol-artifact-1",
  "contractName": "CrossChainLiquidityAggregator",
  "sourceName": "contracts/CrossChainLiquidityAggregator.sol",
  "abi": [
    {
      "inputs": [
        {
          "internalType": "address",
          "name": "_bridge",
          "type": "address"
        },
        {
          "internalType": "address",
          "name": "_dexAggregator",
          "type": "address"
        }
      ],
      "stateMutability": "nonpayable",
      "type": "constructor"
    },
    {
      "anonymous": false,
      "inputs": [
        {
          "indexed": true,
          "internalType": "address",
          "name": "token",
          "type": "address"
        },
        {
          "indexed": false,
          "internalType": "uint256",
          "name": "amount",
          "type": "uint256"
        },
        {
          "indexed": false,
          "internalType": "uint256",
          "name": "targetChainId",
          "type": "uint256"
        }
      ],
      "name": "AssetBridged",
      "type": "event"
    },
    {
      "anonymous": false,
      "inputs": [
        {
          "indexed": true,
          "internalType": "address",
          "name": "token",
          "type": "address"
        },
        {
          "indexed": false,
          "internalType": "uint256",
          "name": "amount",
          "type": "uint256"
        }
      ],
      "name": "LiquidityAggregated",
      "type": "event"
    },
    {
      "inputs": [
        {
          "internalType": "address",
          "name": "_token",
          "type": "address"
        },
        {
          "internalType": "uint256",
          "name": "_amount",
          "type": "uint256"
        }
      ],
      "name": "aggregateLiquidity",
      "outputs": [],
      "stateMutability": "nonpayable",
      "type": "function"
    },
    {
      "inputs": [],
      "name": "bridge",
      "outputs": [
        {
          "internalType": "address",
          "name": "",
          "type": "address"
        }
      ],
      "stateMutability": "view",
      "type": "function"
    },
    {
      "inputs": [
        {
          "internalType": "address",
          "name": "_token",
          "type": "address"
        },
        {
          "internalType": "uint256",
          "name": "_amount",
          "type": "uint256"
        },
        {
          "internalType": "uint256",
          "name": "_targetChainId",
          "type": "uint256"
        }
      ],
      "name": "bridgeToChain",
      "outputs": [],
      "stateMutability": "nonpayable",
      "type": "function"
    },
    {
      "inputs": [],
      "name": "dexAggregator",
      "outputs": [
        {
          "internalType": "address",
          "name": "",
          "type": "address"
        }
      ],
      "stateMutability": "view",
      "type": "function"
    },
    {
      "inputs": [],
      "name": "owner",
      "outputs": [
        {
          "internalType": "address",
          "name": "",
          "type": "address"
        }
      ],
      "stateMutability": "view",
      "type": "function"
    }
  ],
  "bytecode": "0x608060405234801561001057600080fd5b50604051610bf3380380610bf383398181016040528101906100329190610110565b336000806101000a81548173ffffffffffffffffffffffffffffffffffffffff021916908373ffffffffffffffffffffffffffffffffffffffff16021790555081600160006101000a81548173ffffffffffffffffffffffffffffffffffffffff021916908373ffffffffffffffffffffffffffffffffffffffff16021790555080600260006101000a81548173ffffffffffffffffffffffffffffffffffffffff021916908373ffffffffffffffffffffffffffffffffffffffff1602179055505050610195565b60008151905061010a8161017e565b92915050565b6000806040838503121561012357600080fd5b6000610131858286016100fb565b9250506020610142858286016100fb565b9150509250929050565b60006101578261015e565b9050919050565b600073ffffffffffffffffffffffffffffffffffffffff82169050919050565b6101878161014c565b811461019257600080fd5b50565b610a4f806101a46000396000f3fe608060405234801561001057600080fd5b50600436106100575760003560e01c80637c21d5e01461005c5780637f1fa2251461007a5780638da5cb5b14610096578063c36a0b6e146100b4578063e78cea92146100d0575b600080fd5b6100646100ee565b6040516100719190610845565b60405180910390f35b610094600480360381019061008f91906106e0565b610114565b005b61009e61037b565b6040516100ab9190610845565b60405180910390f35b6100ce60048036038101906100c991906106a4565b61039f565b005b6100d861062a565b6040516100e59190610845565b60405180910390f35b600260009054906101000a900473ffffffffffffffffffffffffffffffffffffffff1681565b60008054906101000a900473ffffffffffffffffffffffffffffffffffffffff1673ffffffffffffffffffffffffffffffffffffffff163373ffffffffffffffffffffffffffffffffffffffff16146101a2576040517f08c379a000000000000000000000000000000000000000000000000000000000815260040161019990610917565b60405180910390fd5b600082116101e5576040517f08c379a00000000000000000000000000000000000000000000000000000000081526004016101dc906108f7565b60405180910390fd5b8273ffffffffffffffffffffffffffffffffffffffff1663095ea7b3600160009054906101000a900473ffffffffffffffffffffffffffffffffffffffff16846040518363ffffffff1660e01b8152600401610242929190610897565b602060405180830381600087803b15801561025c57600080fd5b505af1158015610270573d6000803e3d6000fd5b505050506040513d601f19601f82011682018060405250810190610294919061072f565b50600160009054906101000a900473ffffffffffffffffffffffffffffffffffffffff1673ffffffffffffffffffffffffffffffffffffffff16636e6beaf88484846040518463ffffffff1660e01b81526004016102f4939291906108c0565b600060405180830381600087803b15801561030e57600080fd5b505af1158015610322573d6000803e3d6000fd5b505050508273ffffffffffffffffffffffffffffffffffffffff167f560713eed5e8003432a0a1d3f419c35c59e6abca10b2dbcf980f388aa72d0921838360405161036e929190610952565b60405180910390a2505050565b60008054906101000a900473ffffffffffffffffffffffffffffffffffffffff1681565b600081116103e2576040517f08c379a00000000000000000000000000000000000000000000000000000000081526004016103d9906108f7565b60405180910390fd5b8173ffffffffffffffffffffffffffffffffffffffff166323b872dd3330846040518463ffffffff1660e01b815260040161041f93929190610860565b602060405180830381600087803b15801561043957600080fd5b505af115801561044d573d6000803e3d6000fd5b505050506040513d601f19601f82011682018060405250810190610471919061072f565b508173ffffffffffffffffffffffffffffffffffffffff1663095ea7b3600260009054906101000a900473ffffffffffffffffffffffffffffffffffffffff16836040518363ffffffff1660e01b81526004016104cf929190610897565b602060405180830381600087803b1580156104e957600080fd5b505af11580156104fd573d6000803e3d6000fd5b505050506040513d601f19601f82011682018060405250810190610521919061072f565b506000600260009054906101000a900473ffffffffffffffffffffffffffffffffffffffff1673ffffffffffffffffffffffffffffffffffffffff1663df791e508485856040518463ffffffff1660e01b815260040161058393929190610860565b602060405180830381600087803b15801561059d57600080fd5b505af11580156105b1573d6000803e3d6000fd5b505050506040513d601f19601f820116820180604052508101906105d59190610758565b90508273ffffffffffffffffffffffffffffffffffffffff167f674d5dbe03a8911d446126bad4e79e7d4523bc0697eccd790839680d42d7fe8b8260405161061d9190610937565b60405180910390a2505050565b600160009054906101000a900473ffffffffffffffffffffffffffffffffffffffff1681565b60008135905061065f816109d4565b92915050565b600081519050610674816109eb565b92915050565b60008135905061068981610a02565b92915050565b60008151905061069e81610a02565b92915050565b600080604083850312156106b757600080fd5b60006106c585828601610650565b92505060206106d68582860161067a565b9150509250929050565b6000806000606084860312156106f557600080fd5b600061070386828701610650565b93505060206107148682870161067a565b92505060406107258682870161067a565b9150509250925092565b60006020828403121561074157600080fd5b600061074f84828501610665565b91505092915050565b60006020828403121561076a57600080fd5b60006107788482850161068f565b91505092915050565b61078a8161098c565b82525050565b600061079d60208361097b565b91507f416d6f756e74206d7573742062652067726561746572207468616e207a65726f6000830152602082019050919050565b60006107dd60228361097b565b91507f4f6e6c79206f776e65722063616e20706572666f726d2074686973206163746960008301527f6f6e0000000000000000000000000000000000000000000000000000000000006020830152604082019050919050565b61083f816109ca565b82525050565b600060208201905061085a6000830184610781565b92915050565b60006060820190506108756000830186610781565b6108826020830185610781565b61088f6040830184610836565b949350505050565b60006040820190506108ac6000830185610781565b6108b96020830184610836565b9392505050565b60006060820190506108d56000830186610781565b6108e26020830185610836565b6108ef6040830184610836565b949350505050565b6000602082019050818103600083015261091081610790565b9050919050565b60006020820190508181036000830152610930816107d0565b9050919050565b600060208201905061094c6000830184610836565b92915050565b60006040820190506109676000830185610836565b6109746020830184610836565b9392505050565b600082825260208201905092915050565b6000610997826109aa565b9050919050565b60008115159050919050565b600073ffffffffffffffffffffffffffffffffffffffff82169050919050565b6000819050919050565b6109dd8161098c565b81146109e857600080fd5b50565b6109f48161099e565b81146109ff57600080fd5b50565b610a0b816109ca565b8114610a1657600080fd5b5056fea26469706673582212207236b5057245eb20b52e41b93c3403ca0f759ec60dd6d64bdfbbc66d76edd75364736f6c63430008000033",
  "linkReferences": {},
  "deployedLinkReferences": {}
}