{
  "_format": "hh-sol-artifact-1",
  "contractName": "YieldAggregator",
  "sourceName": "contracts/YieldAggregator.sol",
  "abi": [
    {
      "inputs": [
        {
          "internalType": "address",
          "name": "_aiOracle",
          "type": "address"
        }
      ],
      "stateMutability": "nonpayable",
      "type": "constructor"
    },
    {
      "anonymous": false,
      "inputs": [
        {
          "indexed": true,
          "internalType": "address",
          "name": "user",
          "type": "address"
        },
        {
          "indexed": true,
          "internalType": "address",
          "name": "token",
          "type": "address"
        },
        {
          "indexed": false,
          "internalType": "uint256",
          "name": "amount",
          "type": "uint256"
        }
      ],
      "name": "FundsDeposited",
      "type": "event"
    },
    {
      "anonymous": false,
      "inputs": [
        {
          "indexed": true,
          "internalType": "address",
          "name": "user",
          "type": "address"
        },
        {
          "indexed": true,
          "internalType": "address",
          "name": "token",
          "type": "address"
        },
        {
          "indexed": false,
          "internalType": "uint256",
          "name": "amount",
          "type": "uint256"
        }
      ],
      "name": "FundsWithdrawn",
      "type": "event"
    },
    {
      "anonymous": false,
      "inputs": [
        {
          "indexed": true,
          "internalType": "address",
          "name": "protocol",
          "type": "address"
        }
      ],
      "name": "ProtocolAdded",
      "type": "event"
    },
    {
      "inputs": [
        {
          "internalType": "address",
          "name": "_protocol",
          "type": "address"
        }
      ],
      "name": "addProtocol",
      "outputs": [],
      "stateMutability": "nonpayable",
      "type": "function"
    },
    {
      "inputs": [],
      "name": "aiOracle",
      "outputs": [
        {
          "internalType": "address",
          "name": "",
          "type": "address"
        }
      ],
      "stateMutability": "view",
      "type": "function"
    },
    {
      "inputs": [
        {
          "internalType": "address",
          "name": "_token",
          "type": "address"
        },
        {
          "internalType": "uint256",
          "name": "_amount",
          "type": "uint256"
        }
      ],
      "name": "deposit",
      "outputs": [],
      "stateMutability": "nonpayable",
      "type": "function"
    },
    {
      "inputs": [
        {
          "internalType": "address",
          "name": "",
          "type": "address"
        },
        {
          "internalType": "address",
          "name": "",
          "type": "address"
        }
      ],
      "name": "deposits",
      "outputs": [
        {
          "internalType": "uint256",
          "name": "",
          "type": "uint256"
        }
      ],
      "stateMutability": "view",
      "type": "function"
    },
    {
      "inputs": [
        {
          "internalType": "address",
          "name": "_token",
          "type": "address"
        }
      ],
      "name": "getOptimalProtocol",
      "outputs": [
        {
          "internalType": "contract IDeFiProtocol",
          "name": "optimalProtocol",
          "type": "address"
        }
      ],
      "stateMutability": "view",
      "type": "function"
    },
    {
      "inputs": [],
      "name": "owner",
      "outputs": [
        {
          "internalType": "address",
          "name": "",
          "type": "address"
        }
      ],
      "stateMutability": "view",
      "type": "function"
    },
    {
      "inputs": [
        {
          "internalType": "uint256",
          "name": "",
          "type": "uint256"
        }
      ],
      "name": "protocols",
      "outputs": [
        {
          "internalType": "contract IDeFiProtocol",
          "name": "",
          "type": "address"
        }
      ],
      "stateMutability": "view",
      "type": "function"
    },
    {
      "inputs": [
        {
          "internalType": "address",
          "name": "_token",
          "type": "address"
        },
        {
          "internalType": "uint256",
          "name": "_amount",
          "type": "uint256"
        }
      ],
      "name": "withdraw",
      "outputs": [],
      "stateMutability": "nonpayable",
      "type": "function"
    }
  ],
  "bytecode": "0x608060405234801561001057600080fd5b50604051620011ca380380620011ca833981810160405281019061003491906100d0565b336000806101000a81548173ffffffffffffffffffffffffffffffffffffffff021916908373ffffffffffffffffffffffffffffffffffffffff16021790555080600160006101000a81548173ffffffffffffffffffffffffffffffffffffffff021916908373ffffffffffffffffffffffffffffffffffffffff16021790555050610142565b6000815190506100ca8161012b565b92915050565b6000602082840312156100e257600080fd5b60006100f0848285016100bb565b91505092915050565b60006101048261010b565b9050919050565b600073ffffffffffffffffffffffffffffffffffffffff82169050919050565b610134816100f9565b811461013f57600080fd5b50565b61107880620001526000396000f3fe608060405234801561001057600080fd5b50600436106100885760003560e01c80638da5cb5b1161005b5780638da5cb5b146101135780638f601f6614610131578063b16f76c814610161578063f3fef3a31461019157610088565b806331b221cd1461008d57806347e7ef24146100ab578063771d4c28146100c75780638c396220146100e3575b600080fd5b6100956101ad565b6040516100a29190610d6d565b60405180910390f35b6100c560048036038101906100c09190610b7d565b6101d3565b005b6100e160048036038101906100dc9190610b18565b6104ab565b005b6100fd60048036038101906100f89190610be2565b6105e2565b60405161010a9190610de8565b60405180910390f35b61011b610621565b6040516101289190610d6d565b60405180910390f35b61014b60048036038101906101469190610b41565b610645565b6040516101589190610e63565b60405180910390f35b61017b60048036038101906101769190610b18565b61066a565b6040516101889190610de8565b60405180910390f35b6101ab60048036038101906101a69190610b7d565b610800565b005b600160009054906101000a900473ffffffffffffffffffffffffffffffffffffffff1681565b60008111610216576040517f08c379a000000000000000000000000000000000000000000000000000000000815260040161020d90610e23565b60405180910390fd5b8173ffffffffffffffffffffffffffffffffffffffff166323b872dd3330846040518463ffffffff1660e01b815260040161025393929190610d88565b602060405180830381600087803b15801561026d57600080fd5b505af1158015610281573d6000803e3d6000fd5b505050506040513d601f19601f820116820180604052508101906102a59190610bb9565b5060006102b18361066a565b90508273ffffffffffffffffffffffffffffffffffffffff1663095ea7b382846040518363ffffffff1660e01b81526004016102ee929190610dbf565b602060405180830381600087803b15801561030857600080fd5b505af115801561031c573d6000803e3d6000fd5b505050506040513d601f19601f820116820180604052508101906103409190610bb9565b508073ffffffffffffffffffffffffffffffffffffffff166347e7ef2484846040518363ffffffff1660e01b815260040161037c929190610dbf565b600060405180830381600087803b15801561039657600080fd5b505af11580156103aa573d6000803e3d6000fd5b5050505081600360003373ffffffffffffffffffffffffffffffffffffffff1673ffffffffffffffffffffffffffffffffffffffff16815260200190815260200160002060008573ffffffffffffffffffffffffffffffffffffffff1673ffffffffffffffffffffffffffffffffffffffff168152602001908152602001600020600082825461043a9190610e8f565b925050819055508273ffffffffffffffffffffffffffffffffffffffff163373ffffffffffffffffffffffffffffffffffffffff167ff0d0e99cae184d0187b093b48894117462462379674a6e11d89c3fbb618e96b08460405161049e9190610e63565b60405180910390a3505050565b60008054906101000a900473ffffffffffffffffffffffffffffffffffffffff1673ffffffffffffffffffffffffffffffffffffffff163373ffffffffffffffffffffffffffffffffffffffff1614610539576040517f08c379a000000000000000000000000000000000000000000000000000000000815260040161053090610e43565b60405180910390fd5b6002819080600181540180825580915050600190039060005260206000200160009091909190916101000a81548173ffffffffffffffffffffffffffffffffffffffff021916908373ffffffffffffffffffffffffffffffffffffffff1602179055508073ffffffffffffffffffffffffffffffffffffffff167f5072f5782b6a92fe255b043741c07ea7b714d1ce182b5dc2d3c47e5a17232b1c60405160405180910390a250565b600281815481106105f257600080fd5b906000526020600020016000915054906101000a900473ffffffffffffffffffffffffffffffffffffffff1681565b60008054906101000a900473ffffffffffffffffffffffffffffffffffffffff1681565b6003602052816000526040600020602052806000526040600020600091509150505481565b6000806000905060005b6002805490508110156107f9576000600282815481106106bd577f4e487b7100000000000000000000000000000000000000000000000000000000600052603260045260246000fd5b9060005260206000200160009054906101000a900473ffffffffffffffffffffffffffffffffffffffff1673ffffffffffffffffffffffffffffffffffffffff166364c33977866040518263ffffffff1660e01b81526004016107209190610d6d565b60206040518083038186803b15801561073857600080fd5b505afa15801561074c573d6000803e3d6000fd5b505050506040513d601f19601f820116820180604052508101906107709190610c0b565b9050828111156107e557809250600282815481106107b7577f4e487b7100000000000000000000000000000000000000000000000000000000600052603260045260246000fd5b9060005260206000200160009054906101000a900473ffffffffffffffffffffffffffffffffffffffff1693505b5080806107f190610f85565b915050610674565b5050919050565b80600360003373ffffffffffffffffffffffffffffffffffffffff1673ffffffffffffffffffffffffffffffffffffffff16815260200190815260200160002060008473ffffffffffffffffffffffffffffffffffffffff1673ffffffffffffffffffffffffffffffffffffffff1681526020019081526020016000205410156108bf576040517f08c379a00000000000000000000000000000000000000000000000000000000081526004016108b690610e03565b60405180910390fd5b60006108ca8361066a565b90508073ffffffffffffffffffffffffffffffffffffffff1663f3fef3a384846040518363ffffffff1660e01b8152600401610907929190610dbf565b600060405180830381600087803b15801561092157600080fd5b505af1158015610935573d6000803e3d6000fd5b505050508273ffffffffffffffffffffffffffffffffffffffff1663a9059cbb33846040518363ffffffff1660e01b8152600401610974929190610dbf565b602060405180830381600087803b15801561098e57600080fd5b505af11580156109a2573d6000803e3d6000fd5b505050506040513d601f19601f820116820180604052508101906109c69190610bb9565b5081600360003373ffffffffffffffffffffffffffffffffffffffff1673ffffffffffffffffffffffffffffffffffffffff16815260200190815260200160002060008573ffffffffffffffffffffffffffffffffffffffff1673ffffffffffffffffffffffffffffffffffffffff1681526020019081526020016000206000828254610a539190610ee5565b925050819055508273ffffffffffffffffffffffffffffffffffffffff163373ffffffffffffffffffffffffffffffffffffffff167fa92ff919b850e4909ab2261d907ef955f11bc1716733a6cbece38d163a69af8a84604051610ab79190610e63565b60405180910390a3505050565b600081359050610ad381610ffd565b92915050565b600081519050610ae881611014565b92915050565b600081359050610afd8161102b565b92915050565b600081519050610b128161102b565b92915050565b600060208284031215610b2a57600080fd5b6000610b3884828501610ac4565b91505092915050565b60008060408385031215610b5457600080fd5b6000610b6285828601610ac4565b9250506020610b7385828601610ac4565b9150509250929050565b60008060408385031215610b9057600080fd5b6000610b9e85828601610ac4565b9250506020610baf85828601610aee565b9150509250929050565b600060208284031215610bcb57600080fd5b6000610bd984828501610ad9565b91505092915050565b600060208284031215610bf457600080fd5b6000610c0284828501610aee565b91505092915050565b600060208284031215610c1d57600080fd5b6000610c2b84828501610b03565b91505092915050565b610c3d81610f19565b82525050565b610c4c81610f61565b82525050565b6000610c5f601483610e7e565b91507f496e73756666696369656e742062616c616e63650000000000000000000000006000830152602082019050919050565b6000610c9f602883610e7e565b91507f4465706f73697420616d6f756e74206d7573742062652067726561746572207460008301527f68616e207a65726f0000000000000000000000000000000000000000000000006020830152604082019050919050565b6000610d05602283610e7e565b91507f4f6e6c79206f776e65722063616e20706572666f726d2074686973206163746960008301527f6f6e0000000000000000000000000000000000000000000000000000000000006020830152604082019050919050565b610d6781610f57565b82525050565b6000602082019050610d826000830184610c34565b92915050565b6000606082019050610d9d6000830186610c34565b610daa6020830185610c34565b610db76040830184610d5e565b949350505050565b6000604082019050610dd46000830185610c34565b610de16020830184610d5e565b9392505050565b6000602082019050610dfd6000830184610c43565b92915050565b60006020820190508181036000830152610e1c81610c52565b9050919050565b60006020820190508181036000830152610e3c81610c92565b9050919050565b60006020820190508181036000830152610e5c81610cf8565b9050919050565b6000602082019050610e786000830184610d5e565b92915050565b600082825260208201905092915050565b6000610e9a82610f57565b9150610ea583610f57565b9250827fffffffffffffffffffffffffffffffffffffffffffffffffffffffffffffffff03821115610eda57610ed9610fce565b5b828201905092915050565b6000610ef082610f57565b9150610efb83610f57565b925082821015610f0e57610f0d610fce565b5b828203905092915050565b6000610f2482610f37565b9050919050565b60008115159050919050565b600073ffffffffffffffffffffffffffffffffffffffff82169050919050565b6000819050919050565b6000610f6c82610f73565b9050919050565b6000610f7e82610f37565b9050919050565b6000610f9082610f57565b91507fffffffffffffffffffffffffffffffffffffffffffffffffffffffffffffffff821415610fc357610fc2610fce565b5b600182019050919050565b7f4e487b7100000000000000000000000000000000000000000000000000000000600052601160045260246000fd5b61100681610f19565b811461101157600080fd5b50565b61101d81610f2b565b811461102857600080fd5b50565b61103481610f57565b811461103f57600080fd5b5056fea2646970667358221220614a3ba3df93edcfeeaa5e2e56045af8af36722c8243ff03773da8595d739d4164736f6c63430008000033",
  "linkReferences": {},
  "deployedLinkReferences": {}
}